:1000000019C033C032C031C030C02FC02EC08BC128
:100010002CC0D7C09EC129C028C027C026C025C07B
:1000200024C023C031C221C020C0BFC11EC01DC01A
:100030001CC01BC011241FBECFEFD4E0DEBFCDBF5C
:1000400011E0A0E0B1E0E2ECFAE002C005900D9210
:10005000A430B107D9F712E0A4E0B1E001C01D92CD
:10006000A737B107E1F7E1D22BC5CACF8295880F38
:10007000880F807C80937C008FE880937A000895BD
:10008000ECE7F0E09081907F90839081982B9083B3
:10009000EAE7F0E080818064808308958091050123
:1000A00080FF4EC080910F019091100166E070E0DA
:1000B000F3D470931201609311018091CA01909161
:1000C000CB01809321018091CC019091CD0180934F
:1000D00024018091CE019091CF018093760280918E
:1000E000210180FD2EC05F988091210181FF2EC0EB
:1000F0002E9A8091210182FF2EC02F9A809121019A
:1001000083FF2EC05C9A80912401882371F5809131
:1001100024018F5F8093240180917602882381F5EA
:10012000809176028F5F809376028091240187BD53
:100130008091760288BD809105018E7F80930501B4
:1001400008955F9A8091210181FDD2CF2E988091F0
:10015000210182FDD2CF2F988091210183FDD2CF42
:100160005C9880912401882391F280912401813A46
:1001700098F280EA8093240180917602882381F2AC
:1001800080917602813A88F280EA80937602CDCF20
:100190008091080180FF14C08091D0019091D1011D
:1001A0008093250180912501882329F480912501E0
:1001B0008F5F80932501809108018E7F80930801D5
:1001C00008951F920F920FB60F9211242F935F93F1
:1001D0006F937F938F939F93AF93BF9380910D0104
:1001E000823009F471C080910D01882309F44EC05A
:1001F00080910D01813009F482C080910D0183301E
:1002000009F470C080910E018B3109F452C08091C5
:100210000E01873009F460C080910E018F3209F41D
:1002200068C080910B0190910C0164EF71E034D4AF
:10023000892B21F485B194E0892785B980910B0140
:1002400090910C01019690930C0180930B01809189
:100250000B0190910C0164E170E01ED480930D01BC
:1002600080910B0190910C016CE370E015D48093A8
:100270000E0180910B0190910C0180569A4E09F06D
:1002800045C010920C0110920B0140C080912501D5
:100290008093B3008091B300882309F0B3CF80919D
:1002A000B3008F5F8093B30080910E018B3109F012
:1002B000AECF809108018160809308018091050193
:1002C000816080930501ADCF1092B200809108014A
:1002D00082608093080196CF8091060181608093AF
:1002E00006019FCF809108018D7F809308015A9865
:1002F00089CF8091040181608093040192CF5A9A42
:10030000809170008360809370007CCFBF91AF912B
:100310009F918F917F916F915F912F910F900FBE61
:100320000F901F9018951F920F920FB60F921124E5
:100330008F938091080181FF06C05A9880917000C8
:100340008D7F809370008F910F900FBE0F901F9044
:1003500018951F920F920FB60F9211248F939F93AF
:100360008091810086FF0DC0809181008260809322
:100370008100809181008F7B8093810080E286BB29
:100380000DC080918600909187009093100180931A
:100390000F0180916F008F7D80936F009F918F91EF
:1003A0000F900FBE0F901F9018951F920F920FB6CF
:1003B0000F9211242F933F934F935F938F939F93AB
:1003C00080917800809317018091790080931801C3
:1003D0008091070180FF48C08091180190E0982F1C
:1003E0008827909303018093020180911701209147
:1003F00002013091030190E0822B932B9093030133
:1004000080930201809100019091010140910201CD
:10041000509103012091000130910101880F991F33
:10042000880F991F880F991F821B930B840F951FAC
:1004300096958795969587959695879590930101C2
:1004400080930001809107018E7F80930701809146
:1004500007018160809307011092190110921A011F
:1004600010921B0110921C018091070180688093FB
:1004700007019F918F915F914F913F912F910F9025
:100480000FBE0F901F9018951F920F920FB60F92EC
:1004900011242F933F934F935F936F937F938F9389
:1004A0009F93AF93BF93EF93FF936091C60088E44F
:1004B00091E033D180910401806880930401FF9121
:1004C000EF91BF91AF919F918F917F916F915F91CC
:1004D0004F913F912F910F900FBE0F901F90189545
:1004E0008091060180FF0895B4D2809106018E7F2D
:1004F0008093060108958091070187FF08958091F8
:10050000070180FD06C0809107018F778093070166
:10051000089580E0B5DDF7CFCF93DF93809104019C
:1005200080FD11C08091040187FD4EC0C2EDD1E075
:1005300005C08AE079D2CE01ABD1D1D0CE01E5D0D1
:100540008823B9F76FC081E08093260189E080930A
:1005500027018091210180932801809124018093BB
:1005600029018091760280932A0180912501809350
:100570002B01809111019091120180932C018091A7
:10058000110190911201892F992780932D0180915B
:1005900000019091010180932E01809100019091C2
:1005A0000101892F992780932F018091B3008093B7
:1005B000300166E271E082ED91E0D8D080910401D3
:1005C0008E7F809304012EC064E572E088E491E0A0
:1005D00076D1882321F080915402813031F08091CE
:1005E00004018F77809304011DC08091560290E032
:1005F0009093CB018093CA018091570290E0909331
:10060000CD018093CC018091580290E09093CF016E
:100610008093CE018091590290E09093D101809314
:10062000D001DDCFDF91CF9108951092CB011092D0
:10063000CA0180E890E09093CD018093CC01909323
:10064000CF018093CE019093D1018093D00134D01B
:10065000229A269A279A529A549A559A569A579AB3
:10066000219A81E003DD8091070181688093070171
:1006700008D283E0CAD180E88093B3008093B400AD
:1006800083EA84BD85BD81E087BD88BD789484E61A
:1006900090E090930A018093090110922401109236
:1006A000760210920C0110920B0136DF71DDF6DC40
:1006B00017DF21DFEFD1F9CFE0ECF0E0808182603D
:1006C0008083E2ECF0E080818660808389E1809322
:1006D000C400E1ECF0E08081886980830895982F60
:1006E0008091C00085FFFCCF9093C6000895CF9302
:1006F000DF93EC018881882329F02196F0DF88813F
:100700008823D9F7DF91CF910895FC018081218161
:10071000821B90E08F7790700895DC018C91FD0131
:10072000E80FF11D6283982F9F5F9F779C93FD01D7
:100730008181981308959F5F9F7791830895FC01AD
:100740008181680F6F77E60FF11D828190E0089537
:10075000FC01962F61818081861B8F77981710F09E
:10076000680F02C0690F6F7761830895CF92DF929F
:10077000EF92FF920F931F93CF93DF936C01EB01E6
:10078000E9808881E80E6AE0C601C7DF6881C6019A
:10079000C4DF6981C601C1DF8981882379F0FF2424
:1007A0008E010F0D111DF8016281C601B6DFF8013F
:1007B0008281E80EF3948981F81690F36E2DC601BC
:1007C000ACDFDF91CF911F910F91FF90EF90DF9001
:1007D000CF9008950F931F93CF93DF93EC018881FF
:1007E000998129813A85032F080F020F332341F0A5
:1007F0003150FE01E30FF11D8281080F3323C1F751
:100800008AE06DDF88816BDF898169DF8A8567DF38
:100810008A85882351F010E0FE01E10FF11D8281ED
:100820005EDF1F5F8A858117B9F7802F58DFDF9160
:10083000CF911F910F910895CF93DF93FC01EB01AE
:10084000BC016E5F7F4F82818A87818190E0982F03
:1008500088272081820F911D9770998388838281D8
:10086000882399F0AF014D5F5F4F30E0E32FF0E058
:10087000DE01AE0FBF1FE40FF51F8081FD018283F3
:100880003F5FFB018081381788F3DF91CF91089596
:10089000DC01FC0121818C91821B90E08F779070AC
:1008A000882351F0FD01E20FF11D82812F5F2F7728
:1008B000FD01218390E0089580E090E008957F920B
:1008C0008F929F92AF92BF92CF92DF92EF92FF9260
:1008D0000F931F93CF93DF93CDB7DEB7A2970FB6D9
:1008E000F894DEBF0FBECDBF7C014B0100E010E0ED
:1008F00009C00F5F1F4FF70180819181891B8F779E
:10090000D81630F4D02E602FC70119DF8A3089F74E
:100910006D2DC7011DDFF70110818181181B1F7725
:10092000153018F480E090E054C061E0C70107DFA3
:10093000782E62E0C70103DFB82EF0E2F81708F462
:1009400043C0C82EDD24212F30E0C60104962817AD
:10095000390744F36B2D6D5FC701F1DEA82E82E0ED
:1009600090E0C80ED91E072D11E01F5F612FC7014F
:10097000E6DE080F812F90E08C159D05B4F3A016DC
:1009800019F5BB2081F033E0C32ED12CCC0EDD1E37
:1009900010E01D5F612FC701D2DEF60181936F0168
:1009A00012501B15B1F76B2D6C5FC701D1DEBA82F7
:1009B0007982F401DE01119682E20D90019281505C
:1009C000E1F781E090E005C061E0C701C1DE80E0B1
:1009D00090E0A2960FB6F894DEBF0FBECDBFDF91B8
:1009E000CF911F910F91FF90EF90DF90CF90BF902C
:1009F000AF909F908F907F900895877085BDEEE6B1
:100A0000F0E0808181608083089587708093B100D9
:100A1000E0E7F0E0808181608083089502C00000FB
:100A200081508823E1F7089502C000008150882397
:100A3000E1F7089520910B0130910C01280F391F27
:100A400080910B0190910C0182179307C9F7000068
:100A50000895E1E8F0E08081887F8083109285002E
:100A60001092840080818064808380E286BB299A12
:100A700084E1DADF2998EFE6F0E08081806280830C
:100A80000895A895E0E6F0E08081886180838EE09B
:100A900080830895A8950895AA1BBB1B51E107C048
:100AA000AA1FBB1FA617B70710F0A61BB70B881FFE
:100AB000991F5A95A9F780959095BC01CD0108958D
:020AC000FFCF66
:040AC200000200022C
:00000001FF
